{
  "_format": "hh-sol-artifact-1",
  "contractName": "MyEpicNFT",
  "sourceName": "contracts/MyEpicNFT.sol",
  "abi": [
    {
      "inputs": [],
      "stateMutability": "nonpayable",
      "type": "constructor"
    },
    {
      "anonymous": false,
      "inputs": [
        {
          "indexed": true,
          "internalType": "address",
          "name": "owner",
          "type": "address"
        },
        {
          "indexed": true,
          "internalType": "address",
          "name": "approved",
          "type": "address"
        },
        {
          "indexed": true,
          "internalType": "uint256",
          "name": "tokenId",
          "type": "uint256"
        }
      ],
      "name": "Approval",
      "type": "event"
    },
    {
      "anonymous": false,
      "inputs": [
        {
          "indexed": true,
          "internalType": "address",
          "name": "owner",
          "type": "address"
        },
        {
          "indexed": true,
          "internalType": "address",
          "name": "operator",
          "type": "address"
        },
        {
          "indexed": false,
          "internalType": "bool",
          "name": "approved",
          "type": "bool"
        }
      ],
      "name": "ApprovalForAll",
      "type": "event"
    },
    {
      "anonymous": false,
      "inputs": [
        {
          "indexed": false,
          "internalType": "address",
          "name": "sender",
          "type": "address"
        },
        {
          "indexed": false,
          "internalType": "uint256",
          "name": "tokenId",
          "type": "uint256"
        }
      ],
      "name": "NewEpicNFTMinted",
      "type": "event"
    },
    {
      "anonymous": false,
      "inputs": [
        {
          "indexed": true,
          "internalType": "address",
          "name": "from",
          "type": "address"
        },
        {
          "indexed": true,
          "internalType": "address",
          "name": "to",
          "type": "address"
        },
        {
          "indexed": true,
          "internalType": "uint256",
          "name": "tokenId",
          "type": "uint256"
        }
      ],
      "name": "Transfer",
      "type": "event"
    },
    {
      "inputs": [
        {
          "internalType": "address",
          "name": "to",
          "type": "address"
        },
        {
          "internalType": "uint256",
          "name": "tokenId",
          "type": "uint256"
        }
      ],
      "name": "approve",
      "outputs": [],
      "stateMutability": "nonpayable",
      "type": "function"
    },
    {
      "inputs": [
        {
          "internalType": "address",
          "name": "owner",
          "type": "address"
        }
      ],
      "name": "balanceOf",
      "outputs": [
        {
          "internalType": "uint256",
          "name": "",
          "type": "uint256"
        }
      ],
      "stateMutability": "view",
      "type": "function"
    },
    {
      "inputs": [
        {
          "internalType": "uint256",
          "name": "tokenId",
          "type": "uint256"
        }
      ],
      "name": "getApproved",
      "outputs": [
        {
          "internalType": "address",
          "name": "",
          "type": "address"
        }
      ],
      "stateMutability": "view",
      "type": "function"
    },
    {
      "inputs": [
        {
          "internalType": "address",
          "name": "owner",
          "type": "address"
        },
        {
          "internalType": "address",
          "name": "operator",
          "type": "address"
        }
      ],
      "name": "isApprovedForAll",
      "outputs": [
        {
          "internalType": "bool",
          "name": "",
          "type": "bool"
        }
      ],
      "stateMutability": "view",
      "type": "function"
    },
    {
      "inputs": [],
      "name": "makeAnEpicNFT",
      "outputs": [],
      "stateMutability": "nonpayable",
      "type": "function"
    },
    {
      "inputs": [],
      "name": "name",
      "outputs": [
        {
          "internalType": "string",
          "name": "",
          "type": "string"
        }
      ],
      "stateMutability": "view",
      "type": "function"
    },
    {
      "inputs": [
        {
          "internalType": "uint256",
          "name": "tokenId",
          "type": "uint256"
        }
      ],
      "name": "ownerOf",
      "outputs": [
        {
          "internalType": "address",
          "name": "",
          "type": "address"
        }
      ],
      "stateMutability": "view",
      "type": "function"
    },
    {
      "inputs": [
        {
          "internalType": "uint256",
          "name": "tokenId",
          "type": "uint256"
        }
      ],
      "name": "pickRandomColor",
      "outputs": [
        {
          "internalType": "string",
          "name": "",
          "type": "string"
        }
      ],
      "stateMutability": "view",
      "type": "function"
    },
    {
      "inputs": [
        {
          "internalType": "uint256",
          "name": "tokenId",
          "type": "uint256"
        }
      ],
      "name": "pickRandomFirstWord",
      "outputs": [
        {
          "internalType": "string",
          "name": "",
          "type": "string"
        }
      ],
      "stateMutability": "view",
      "type": "function"
    },
    {
      "inputs": [
        {
          "internalType": "uint256",
          "name": "tokenId",
          "type": "uint256"
        }
      ],
      "name": "pickRandomSecondWord",
      "outputs": [
        {
          "internalType": "string",
          "name": "",
          "type": "string"
        }
      ],
      "stateMutability": "view",
      "type": "function"
    },
    {
      "inputs": [
        {
          "internalType": "uint256",
          "name": "tokenId",
          "type": "uint256"
        }
      ],
      "name": "pickRandomThirdWord",
      "outputs": [
        {
          "internalType": "string",
          "name": "",
          "type": "string"
        }
      ],
      "stateMutability": "view",
      "type": "function"
    },
    {
      "inputs": [
        {
          "internalType": "address",
          "name": "from",
          "type": "address"
        },
        {
          "internalType": "address",
          "name": "to",
          "type": "address"
        },
        {
          "internalType": "uint256",
          "name": "tokenId",
          "type": "uint256"
        }
      ],
      "name": "safeTransferFrom",
      "outputs": [],
      "stateMutability": "nonpayable",
      "type": "function"
    },
    {
      "inputs": [
        {
          "internalType": "address",
          "name": "from",
          "type": "address"
        },
        {
          "internalType": "address",
          "name": "to",
          "type": "address"
        },
        {
          "internalType": "uint256",
          "name": "tokenId",
          "type": "uint256"
        },
        {
          "internalType": "bytes",
          "name": "data",
          "type": "bytes"
        }
      ],
      "name": "safeTransferFrom",
      "outputs": [],
      "stateMutability": "nonpayable",
      "type": "function"
    },
    {
      "inputs": [
        {
          "internalType": "address",
          "name": "operator",
          "type": "address"
        },
        {
          "internalType": "bool",
          "name": "approved",
          "type": "bool"
        }
      ],
      "name": "setApprovalForAll",
      "outputs": [],
      "stateMutability": "nonpayable",
      "type": "function"
    },
    {
      "inputs": [
        {
          "internalType": "bytes4",
          "name": "interfaceId",
          "type": "bytes4"
        }
      ],
      "name": "supportsInterface",
      "outputs": [
        {
          "internalType": "bool",
          "name": "",
          "type": "bool"
        }
      ],
      "stateMutability": "view",
      "type": "function"
    },
    {
      "inputs": [],
      "name": "symbol",
      "outputs": [
        {
          "internalType": "string",
          "name": "",
          "type": "string"
        }
      ],
      "stateMutability": "view",
      "type": "function"
    },
    {
      "inputs": [
        {
          "internalType": "uint256",
          "name": "tokenId",
          "type": "uint256"
        }
      ],
      "name": "tokenURI",
      "outputs": [
        {
          "internalType": "string",
          "name": "",
          "type": "string"
        }
      ],
      "stateMutability": "view",
      "type": "function"
    },
    {
      "inputs": [
        {
          "internalType": "address",
          "name": "from",
          "type": "address"
        },
        {
          "internalType": "address",
          "name": "to",
          "type": "address"
        },
        {
          "internalType": "uint256",
          "name": "tokenId",
          "type": "uint256"
        }
      ],
      "name": "transferFrom",
      "outputs": [],
      "stateMutability": "nonpayable",
      "type": "function"
    }
  ],
  "bytecode": "0x608060405260405180610100016040528060d381526020016200633e60d39139600890816200002f919062001c0c565b506040518060800160405280605681526020016200645160569139600990816200005a919062001c0c565b506040518060c001604052806040518060400160405280600981526020017f46616e746173746963000000000000000000000000000000000000000000000081525081526020016040518060400160405280600481526020017f457069630000000000000000000000000000000000000000000000000000000081525081526020016040518060400160405280600881526020017f5465727269626c6500000000000000000000000000000000000000000000000081525081526020016040518060400160405280600581526020017f4372617a7900000000000000000000000000000000000000000000000000000081525081526020016040518060400160405280600481526020017f57696c640000000000000000000000000000000000000000000000000000000081525081526020016040518060400160405280600681526020017f53706f6f6b790000000000000000000000000000000000000000000000000000815250815250600a906006620001d8929190620018a5565b506040518060c001604052806040518060400160405280600781526020017f43757063616b650000000000000000000000000000000000000000000000000081525081526020016040518060400160405280600581526020017f50697a7a6100000000000000000000000000000000000000000000000000000081525081526020016040518060400160405280600581526020017f437572727900000000000000000000000000000000000000000000000000000081525081526020016040518060400160405280600781526020017f436869636b656e0000000000000000000000000000000000000000000000000081525081526020016040518060400160405280600581526020017f53616c616400000000000000000000000000000000000000000000000000000081525081526020016040518060400160405280600381526020017f4567670000000000000000000000000000000000000000000000000000000000815250815250600b90600662000356929190620018a5565b506040518060c001604052806040518060400160405280600681526020017f4e6172757465000000000000000000000000000000000000000000000000000081525081526020016040518060400160405280600681526020017f53616b757261000000000000000000000000000000000000000000000000000081525081526020016040518060400160405280600681526020017f536173756b65000000000000000000000000000000000000000000000000000081525081526020016040518060400160405280600581526020017f4f6269746f00000000000000000000000000000000000000000000000000000081525081526020016040518060400160405280600681526020017f4d6164617261000000000000000000000000000000000000000000000000000081525081526020016040518060400160405280600981526020017f486173686972616d610000000000000000000000000000000000000000000000815250815250600c906006620004d4929190620018a5565b506040518060c001604052806040518060400160405280600381526020017f726564000000000000000000000000000000000000000000000000000000000081525081526020016040518060400160405280600781526020017f233038433241380000000000000000000000000000000000000000000000000081525081526020016040518060400160405280600581526020017f626c61636b00000000000000000000000000000000000000000000000000000081525081526020016040518060400160405280600681526020017f79656c6c6f77000000000000000000000000000000000000000000000000000081525081526020016040518060400160405280600481526020017f626c75650000000000000000000000000000000000000000000000000000000081525081526020016040518060400160405280600581526020017f677265656e000000000000000000000000000000000000000000000000000000815250815250600d90600662000652929190620018a5565b503480156200066057600080fd5b506040518060400160405280600981526020017f5371756172654e465400000000000000000000000000000000000000000000008152506040518060400160405280600681526020017f53515541524500000000000000000000000000000000000000000000000000008152508160009081620006de919062001c0c565b508060019081620006f0919062001c0c565b5050506200073e6040518060400160405280601e81526020017f54686973206973206d79204e465420636f6e74726163742e20576f61682100008152506200075460201b620011101760201c565b6200074e620007f760201b60201c565b62002994565b620007f4816040516024016200076b919062001d82565b6040516020818303038152906040527f41304fac000000000000000000000000000000000000000000000000000000007bffffffffffffffffffffffffffffffffffffffffffffffffffffffff19166020820180517bffffffffffffffffffffffffffffffffffffffffffffffffffffffff838183161783525050505062000a9460201b60201c565b50565b600062000810600762000abd60201b620011a91760201c565b90506000620008258262000acb60201b60201c565b905060006200083a8362000be760201b60201c565b905060006200084f8462000d0360201b60201c565b905060008383836040516020016200086a9392919062001de8565b604051602081830303815290604052905060006200088e8662000e1f60201b60201c565b90506000600882600985604051602001620008ad949392919062001efe565b604051602081830303815290604052905060006200090e84620008db8462000f3b60201b620011b71760201c565b604051602001620008ee929190620020b3565b60405160208183030381529060405262000f3b60201b620011b71760201c565b905060008160405160200162000925919062002152565b6040516020818303038152906040529050620009816040518060400160405280601581526020017f0a2d2d2d2d2d2d2d2d2d2d2d2d2d2d2d2d2d2d2d2d00000000000000000000008152506200075460201b620011101760201c565b62000997816200075460201b620011101760201c565b620009e26040518060400160405280601581526020017f2d2d2d2d2d2d2d2d2d2d2d2d2d2d2d2d2d2d2d2d0a00000000000000000000008152506200075460201b620011101760201c565b620009f4338a620010e760201b60201c565b62000a0689826200110d60201b60201c565b62000a1d60076200118760201b6200134e1760201c565b62000a4e60405180606001604052806025815260200162006319602591398a336200119d60201b620013641760201c565b7febb98688741ffa4c7589bf325de30cf7becb63de567842e1ccdb6cb949fdc82c338a60405162000a81929190620021ce565b60405180910390a1505050505050505050565b60008151905060006a636f6e736f6c652e6c6f679050602083016000808483855afa5050505050565b600081600001549050919050565b6060600062000b1662000ae9846200124660201b620014031760201c565b60405160200162000afb91906200224b565b604051602081830303815290604052620013bf60201b60201c565b9050600a805490508162000b2b9190620022a0565b9050600a818154811062000b445762000b43620022d8565b5b90600052602060002001805462000b5b90620019fb565b80601f016020809104026020016040519081016040528092919081815260200182805462000b8990620019fb565b801562000bda5780601f1062000bae5761010080835404028352916020019162000bda565b820191906000526020600020905b81548152906001019060200180831162000bbc57829003601f168201915b5050505050915050919050565b6060600062000c3262000c05846200124660201b620014031760201c565b60405160200162000c17919062002357565b604051602081830303815290604052620013bf60201b60201c565b9050600b805490508162000c479190620022a0565b9050600b818154811062000c605762000c5f620022d8565b5b90600052602060002001805462000c7790620019fb565b80601f016020809104026020016040519081016040528092919081815260200182805462000ca590620019fb565b801562000cf65780601f1062000cca5761010080835404028352916020019162000cf6565b820191906000526020600020905b81548152906001019060200180831162000cd857829003601f168201915b5050505050915050919050565b6060600062000d4e62000d21846200124660201b620014031760201c565b60405160200162000d339190620023cd565b604051602081830303815290604052620013bf60201b60201c565b9050600c805490508162000d639190620022a0565b9050600c818154811062000d7c5762000d7b620022d8565b5b90600052602060002001805462000d9390620019fb565b80601f016020809104026020016040519081016040528092919081815260200182805462000dc190620019fb565b801562000e125780601f1062000de65761010080835404028352916020019162000e12565b820191906000526020600020905b81548152906001019060200180831162000df457829003601f168201915b5050505050915050919050565b6060600062000e6a62000e3d846200124660201b620014031760201c565b60405160200162000e4f919062002443565b604051602081830303815290604052620013bf60201b60201c565b9050600d805490508162000e7f9190620022a0565b9050600d818154811062000e985762000e97620022d8565b5b90600052602060002001805462000eaf90620019fb565b80601f016020809104026020016040519081016040528092919081815260200182805462000edd90620019fb565b801562000f2e5780601f1062000f025761010080835404028352916020019162000f2e565b820191906000526020600020905b81548152906001019060200180831162000f1057829003601f168201915b5050505050915050919050565b60606000825190506000810362000f655760405180602001604052806000815250915050620010e2565b6000600360028362000f78919062002498565b62000f849190620024d3565b600462000f9291906200250b565b9050600060208262000fa5919062002498565b67ffffffffffffffff81111562000fc15762000fc06200199d565b5b6040519080825280601f01601f19166020018201604052801562000ff45781602001600182028036833780820191505090505b509050600060405180606001604052806040815260200162006411604091399050600181016020830160005b868110156200109b5760038101905062ffffff818a015116603f8160121c168401518060081b905060ff603f83600c1c1686015116810190508060081b905060ff603f8360061c1686015116810190508060081b905060ff603f831686015116810190508060e01b9050808452600484019350505062001020565b506003860660018114620010b85760028114620010c957620010d4565b613d3d60f01b6002830352620010d4565b603d60f81b60018303525b508484525050819450505050505b919050565b62001109828260405180602001604052806000815250620013f460201b60201c565b5050565b6200111e826200146260201b60201c565b62001160576040517f08c379a00000000000000000000000000000000000000000000000000000000081526004016200115790620025cc565b60405180910390fd5b8060066000848152602001908152602001600020908162001182919062001c0c565b505050565b6001816000016000828254019250508190555050565b62001241838383604051602401620011b893929190620025ee565b6040516020818303038152906040527f1c7ec448000000000000000000000000000000000000000000000000000000007bffffffffffffffffffffffffffffffffffffffffffffffffffffffff19166020820180517bffffffffffffffffffffffffffffffffffffffffffffffffffffffff838183161783525050505062000a9460201b60201c565b505050565b6060600082036200128f576040518060400160405280600181526020017f30000000000000000000000000000000000000000000000000000000000000008152509050620013ba565b600082905060005b60008214620012c7578080620012ad9062002632565b915050600a82620012bf9190620024d3565b915062001297565b60008167ffffffffffffffff811115620012e657620012e56200199d565b5b6040519080825280601f01601f191660200182016040528015620013195781602001600182028036833780820191505090505b5090505b60008514620013b3576001826200133591906200267f565b9150600a85620013469190620022a0565b603062001354919062002498565b60f81b8183815181106200136d576200136c620022d8565b5b60200101907effffffffffffffffffffffffffffffffffffffffffffffffffffffffffffff1916908160001a905350600a85620013ab9190620024d3565b94506200131d565b8093505050505b919050565b600081604051602001620013d49190620026ba565b6040516020818303038152906040528051906020012060001c9050919050565b620014068383620014ce60201b60201c565b6200141b6000848484620016c760201b60201c565b6200145d576040517f08c379a0000000000000000000000000000000000000000000000000000000008152600401620014549062002749565b60405180910390fd5b505050565b60008073ffffffffffffffffffffffffffffffffffffffff166002600084815260200190815260200160002060009054906101000a900473ffffffffffffffffffffffffffffffffffffffff1673ffffffffffffffffffffffffffffffffffffffff1614159050919050565b600073ffffffffffffffffffffffffffffffffffffffff168273ffffffffffffffffffffffffffffffffffffffff160362001540576040517f08c379a00000000000000000000000000000000000000000000000000000000081526004016200153790620027bb565b60405180910390fd5b62001551816200146260201b60201c565b1562001594576040517f08c379a00000000000000000000000000000000000000000000000000000000081526004016200158b906200282d565b60405180910390fd5b620015a8600083836200187060201b60201c565b6001600360008473ffffffffffffffffffffffffffffffffffffffff1673ffffffffffffffffffffffffffffffffffffffff1681526020019081526020016000206000828254620015fa919062002498565b92505081905550816002600083815260200190815260200160002060006101000a81548173ffffffffffffffffffffffffffffffffffffffff021916908373ffffffffffffffffffffffffffffffffffffffff160217905550808273ffffffffffffffffffffffffffffffffffffffff16600073ffffffffffffffffffffffffffffffffffffffff167fddf252ad1be2c89b69c2b068fc378daa952ba7f163c4a11628f55a4df523b3ef60405160405180910390a4620016c3600083836200187560201b60201c565b5050565b6000620016f58473ffffffffffffffffffffffffffffffffffffffff166200187a60201b620015631760201c565b1562001863578373ffffffffffffffffffffffffffffffffffffffff1663150b7a02620017276200189d60201b60201c565b8786866040518563ffffffff1660e01b81526004016200174b9493929190620028ac565b6020604051808303816000875af19250505080156200178a57506040513d601f19601f8201168201806040525081019062001787919062002962565b60015b62001812573d8060008114620017bd576040519150601f19603f3d011682016040523d82523d6000602084013e620017c2565b606091505b5060008151036200180a576040517f08c379a0000000000000000000000000000000000000000000000000000000008152600401620018019062002749565b60405180910390fd5b805181602001fd5b63150b7a0260e01b7bffffffffffffffffffffffffffffffffffffffffffffffffffffffff1916817bffffffffffffffffffffffffffffffffffffffffffffffffffffffff19161491505062001868565b600190505b949350505050565b505050565b505050565b6000808273ffffffffffffffffffffffffffffffffffffffff163b119050919050565b600033905090565b828054828255906000526020600020908101928215620018f2579160200282015b82811115620018f1578251829081620018e0919062001c0c565b5091602001919060010190620018c6565b5b50905062001901919062001905565b5090565b5b808211156200192957600081816200191f91906200192d565b5060010162001906565b5090565b5080546200193b90620019fb565b6000825580601f106200194f575062001970565b601f0160209004906000526020600020908101906200196f919062001973565b5b50565b5b808211156200198e57600081600090555060010162001974565b5090565b600081519050919050565b7f4e487b7100000000000000000000000000000000000000000000000000000000600052604160045260246000fd5b7f4e487b7100000000000000000000000000000000000000000000000000000000600052602260045260246000fd5b6000600282049050600182168062001a1457607f821691505b60208210810362001a2a5762001a29620019cc565b5b50919050565b60008190508160005260206000209050919050565b60006020601f8301049050919050565b600082821b905092915050565b60006008830262001a947fffffffffffffffffffffffffffffffffffffffffffffffffffffffffffffffff8262001a55565b62001aa0868362001a55565b95508019841693508086168417925050509392505050565b6000819050919050565b6000819050919050565b600062001aed62001ae762001ae18462001ab8565b62001ac2565b62001ab8565b9050919050565b6000819050919050565b62001b098362001acc565b62001b2162001b188262001af4565b84845462001a62565b825550505050565b600090565b62001b3862001b29565b62001b4581848462001afe565b505050565b5b8181101562001b6d5762001b6160008262001b2e565b60018101905062001b4b565b5050565b601f82111562001bbc5762001b868162001a30565b62001b918462001a45565b8101602085101562001ba1578190505b62001bb962001bb08562001a45565b83018262001b4a565b50505b505050565b600082821c905092915050565b600062001be16000198460080262001bc1565b1980831691505092915050565b600062001bfc838362001bce565b9150826002028217905092915050565b62001c178262001992565b67ffffffffffffffff81111562001c335762001c326200199d565b5b62001c3f8254620019fb565b62001c4c82828562001b71565b600060209050601f83116001811462001c84576000841562001c6f578287015190505b62001c7b858262001bee565b86555062001ceb565b601f19841662001c948662001a30565b60005b8281101562001cbe5784890151825560018201915060208501945060208101905062001c97565b8683101562001cde578489015162001cda601f89168262001bce565b8355505b6001600288020188555050505b505050505050565b600082825260208201905092915050565b60005b8381101562001d2457808201518184015260208101905062001d07565b60008484015250505050565b6000601f19601f8301169050919050565b600062001d4e8262001992565b62001d5a818562001cf3565b935062001d6c81856020860162001d04565b62001d778162001d30565b840191505092915050565b6000602082019050818103600083015262001d9e818462001d41565b905092915050565b600081905092915050565b600062001dbe8262001992565b62001dca818562001da6565b935062001ddc81856020860162001d04565b80840191505092915050565b600062001df6828662001db1565b915062001e04828562001db1565b915062001e12828462001db1565b9150819050949350505050565b6000815462001e2e81620019fb565b62001e3a818662001da6565b9450600182166000811462001e58576001811462001e6e5762001ea5565b60ff198316865281151582028601935062001ea5565b62001e798562001a30565b60005b8381101562001e9d5781548189015260018201915060208101905062001e7c565b838801955050505b50505092915050565b7f3c2f746578743e3c2f7376673e00000000000000000000000000000000000000600082015250565b600062001ee6600d8362001da6565b915062001ef38262001eae565b600d82019050919050565b600062001f0c828762001e1f565b915062001f1a828662001db1565b915062001f28828562001e1f565b915062001f36828462001db1565b915062001f438262001ed7565b915081905095945050505050565b7f7b226e616d65223a202200000000000000000000000000000000000000000000600082015250565b600062001f89600a8362001da6565b915062001f968262001f51565b600a82019050919050565b7f222c20226465736372697074696f6e223a20224120686967686c79206163636c60008201527f61696d656420636f6c6c656374696f6e206f6620737175617265732e222c202260208201527f696d616765223a2022646174613a696d6167652f7376672b786d6c3b6261736560408201527f36342c0000000000000000000000000000000000000000000000000000000000606082015250565b60006200204b60638362001da6565b9150620020588262001fa1565b606382019050919050565b7f227d000000000000000000000000000000000000000000000000000000000000600082015250565b60006200209b60028362001da6565b9150620020a88262002063565b600282019050919050565b6000620020c08262001f7a565b9150620020ce828562001db1565b9150620020db826200203c565b9150620020e9828462001db1565b9150620020f6826200208c565b91508190509392505050565b7f646174613a6170706c69636174696f6e2f6a736f6e3b6261736536342c000000600082015250565b60006200213a601d8362001da6565b9150620021478262002102565b601d82019050919050565b60006200215f826200212b565b91506200216d828462001db1565b915081905092915050565b600073ffffffffffffffffffffffffffffffffffffffff82169050919050565b6000620021a58262002178565b9050919050565b620021b78162002198565b82525050565b620021c88162001ab8565b82525050565b6000604082019050620021e56000830185620021ac565b620021f46020830184620021bd565b9392505050565b7f46495253545f574f524400000000000000000000000000000000000000000000600082015250565b600062002233600a8362001da6565b91506200224082620021fb565b600a82019050919050565b6000620022588262002224565b915062002266828462001db1565b915081905092915050565b7f4e487b7100000000000000000000000000000000000000000000000000000000600052601260045260246000fd5b6000620022ad8262001ab8565b9150620022ba8362001ab8565b925082620022cd57620022cc62002271565b5b828206905092915050565b7f4e487b7100000000000000000000000000000000000000000000000000000000600052603260045260246000fd5b7f5345434f4e445f574f5244000000000000000000000000000000000000000000600082015250565b60006200233f600b8362001da6565b91506200234c8262002307565b600b82019050919050565b6000620023648262002330565b915062002372828462001db1565b915081905092915050565b7f54484952445f574f524400000000000000000000000000000000000000000000600082015250565b6000620023b5600a8362001da6565b9150620023c2826200237d565b600a82019050919050565b6000620023da82620023a6565b9150620023e8828462001db1565b915081905092915050565b7f434f4c4f52000000000000000000000000000000000000000000000000000000600082015250565b60006200242b60058362001da6565b91506200243882620023f3565b600582019050919050565b600062002450826200241c565b91506200245e828462001db1565b915081905092915050565b7f4e487b7100000000000000000000000000000000000000000000000000000000600052601160045260246000fd5b6000620024a58262001ab8565b9150620024b28362001ab8565b9250828201905080821115620024cd57620024cc62002469565b5b92915050565b6000620024e08262001ab8565b9150620024ed8362001ab8565b9250826200250057620024ff62002271565b5b828204905092915050565b6000620025188262001ab8565b9150620025258362001ab8565b9250828202620025358162001ab8565b915082820484148315176200254f576200254e62002469565b5b5092915050565b7f45524337323155524953746f726167653a2055524920736574206f66206e6f6e60008201527f6578697374656e7420746f6b656e000000000000000000000000000000000000602082015250565b6000620025b4602e8362001cf3565b9150620025c18262002556565b604082019050919050565b60006020820190508181036000830152620025e781620025a5565b9050919050565b600060608201905081810360008301526200260a818662001d41565b90506200261b6020830185620021bd565b6200262a6040830184620021ac565b949350505050565b60006200263f8262001ab8565b91507fffffffffffffffffffffffffffffffffffffffffffffffffffffffffffffffff820362002674576200267362002469565b5b600182019050919050565b60006200268c8262001ab8565b9150620026998362001ab8565b9250828203905081811115620026b457620026b362002469565b5b92915050565b6000620026c8828462001db1565b915081905092915050565b7f4552433732313a207472616e7366657220746f206e6f6e20455243373231526560008201527f63656976657220696d706c656d656e7465720000000000000000000000000000602082015250565b60006200273160328362001cf3565b91506200273e82620026d3565b604082019050919050565b60006020820190508181036000830152620027648162002722565b9050919050565b7f4552433732313a206d696e7420746f20746865207a65726f2061646472657373600082015250565b6000620027a360208362001cf3565b9150620027b0826200276b565b602082019050919050565b60006020820190508181036000830152620027d68162002794565b9050919050565b7f4552433732313a20746f6b656e20616c7265616479206d696e74656400000000600082015250565b600062002815601c8362001cf3565b91506200282282620027dd565b602082019050919050565b60006020820190508181036000830152620028488162002806565b9050919050565b600081519050919050565b600082825260208201905092915050565b600062002878826200284f565b6200288481856200285a565b93506200289681856020860162001d04565b620028a18162001d30565b840191505092915050565b6000608082019050620028c36000830187620021ac565b620028d26020830186620021ac565b620028e16040830185620021bd565b8181036060830152620028f581846200286b565b905095945050505050565b600080fd5b60007fffffffff0000000000000000000000000000000000000000000000000000000082169050919050565b6200293c8162002905565b81146200294857600080fd5b50565b6000815190506200295c8162002931565b92915050565b6000602082840312156200297b576200297a62002900565b5b60006200298b848285016200294b565b91505092915050565b61397580620029a46000396000f3fe608060405234801561001057600080fd5b50600436106101165760003560e01c806370a08231116100a2578063b88d4fde11610071578063b88d4fde14610317578063c575757a14610333578063c87b56dd14610363578063de9d132f14610393578063e985e9c51461039d57610116565b806370a082311461027d57806395d89b41146102ad578063a22cb465146102cb578063b187301f146102e757610116565b806323b872dd116100e957806323b872dd146101b55780632de38d68146101d157806342842e0e14610201578063514dc8c61461021d5780636352211e1461024d57610116565b806301ffc9a71461011b57806306fdde031461014b578063081812fc14610169578063095ea7b314610199575b600080fd5b610135600480360381019061013091906121c2565b6103cd565b604051610142919061220a565b60405180910390f35b6101536104af565b60405161016091906122b5565b60405180910390f35b610183600480360381019061017e919061230d565b610541565b604051610190919061237b565b60405180910390f35b6101b360048036038101906101ae91906123c2565b610587565b005b6101cf60048036038101906101ca9190612402565b61069e565b005b6101eb60048036038101906101e6919061230d565b6106fe565b6040516101f891906122b5565b60405180910390f35b61021b60048036038101906102169190612402565b6107f6565b005b6102376004803603810190610232919061230d565b610816565b60405161024491906122b5565b60405180910390f35b6102676004803603810190610262919061230d565b61090e565b604051610274919061237b565b60405180910390f35b61029760048036038101906102929190612455565b6109bf565b6040516102a49190612491565b60405180910390f35b6102b5610a76565b6040516102c291906122b5565b60405180910390f35b6102e560048036038101906102e091906124d8565b610b08565b005b61030160048036038101906102fc919061230d565b610b1e565b60405161030e91906122b5565b60405180910390f35b610331600480360381019061032c919061264d565b610c16565b005b61034d6004803603810190610348919061230d565b610c78565b60405161035a91906122b5565b60405180910390f35b61037d6004803603810190610378919061230d565b610d70565b60405161038a91906122b5565b60405180910390f35b61039b610e82565b005b6103b760048036038101906103b291906126d0565b61107c565b6040516103c4919061220a565b60405180910390f35b60007f80ac58cd000000000000000000000000000000000000000000000000000000007bffffffffffffffffffffffffffffffffffffffffffffffffffffffff1916827bffffffffffffffffffffffffffffffffffffffffffffffffffffffff1916148061049857507f5b5e139f000000000000000000000000000000000000000000000000000000007bffffffffffffffffffffffffffffffffffffffffffffffffffffffff1916827bffffffffffffffffffffffffffffffffffffffffffffffffffffffff1916145b806104a857506104a782611586565b5b9050919050565b6060600080546104be9061273f565b80601f01602080910402602001604051908101604052809291908181526020018280546104ea9061273f565b80156105375780601f1061050c57610100808354040283529160200191610537565b820191906000526020600020905b81548152906001019060200180831161051a57829003601f168201915b5050505050905090565b600061054c826115f0565b6004600083815260200190815260200160002060009054906101000a900473ffffffffffffffffffffffffffffffffffffffff169050919050565b60006105928261090e565b90508073ffffffffffffffffffffffffffffffffffffffff168373ffffffffffffffffffffffffffffffffffffffff1603610602576040517f08c379a00000000000000000000000000000000000000000000000000000000081526004016105f9906127e2565b60405180910390fd5b8073ffffffffffffffffffffffffffffffffffffffff1661062161163b565b73ffffffffffffffffffffffffffffffffffffffff161480610650575061064f8161064a61163b565b61107c565b5b61068f576040517f08c379a000000000000000000000000000000000000000000000000000000000815260040161068690612874565b60405180910390fd5b6106998383611643565b505050565b6106af6106a961163b565b826116fc565b6106ee576040517f08c379a00000000000000000000000000000000000000000000000000000000081526004016106e590612906565b60405180910390fd5b6106f9838383611791565b505050565b6060600061073261070e84611403565b60405160200161071e91906129ae565b6040516020818303038152906040526119f7565b9050600a805490508161074591906129ff565b9050600a818154811061075b5761075a612a30565b5b9060005260206000200180546107709061273f565b80601f016020809104026020016040519081016040528092919081815260200182805461079c9061273f565b80156107e95780601f106107be576101008083540402835291602001916107e9565b820191906000526020600020905b8154815290600101906020018083116107cc57829003601f168201915b5050505050915050919050565b61081183838360405180602001604052806000815250610c16565b505050565b6060600061084a61082684611403565b6040516020016108369190612aab565b6040516020818303038152906040526119f7565b9050600d805490508161085d91906129ff565b9050600d818154811061087357610872612a30565b5b9060005260206000200180546108889061273f565b80601f01602080910402602001604051908101604052809291908181526020018280546108b49061273f565b80156109015780601f106108d657610100808354040283529160200191610901565b820191906000526020600020905b8154815290600101906020018083116108e457829003601f168201915b5050505050915050919050565b6000806002600084815260200190815260200160002060009054906101000a900473ffffffffffffffffffffffffffffffffffffffff169050600073ffffffffffffffffffffffffffffffffffffffff168173ffffffffffffffffffffffffffffffffffffffff16036109b6576040517f08c379a00000000000000000000000000000000000000000000000000000000081526004016109ad90612b19565b60405180910390fd5b80915050919050565b60008073ffffffffffffffffffffffffffffffffffffffff168273ffffffffffffffffffffffffffffffffffffffff1603610a2f576040517f08c379a0000000000000000000000000000000000000000000000000000000008152600401610a2690612bab565b60405180910390fd5b600360008373ffffffffffffffffffffffffffffffffffffffff1673ffffffffffffffffffffffffffffffffffffffff168152602001908152602001600020549050919050565b606060018054610a859061273f565b80601f0160208091040260200160405190810160405280929190818152602001828054610ab19061273f565b8015610afe5780601f10610ad357610100808354040283529160200191610afe565b820191906000526020600020905b815481529060010190602001808311610ae157829003601f168201915b5050505050905090565b610b1a610b1361163b565b8383611a2a565b5050565b60606000610b52610b2e84611403565b604051602001610b3e9190612c17565b6040516020818303038152906040526119f7565b9050600b8054905081610b6591906129ff565b9050600b8181548110610b7b57610b7a612a30565b5b906000526020600020018054610b909061273f565b80601f0160208091040260200160405190810160405280929190818152602001828054610bbc9061273f565b8015610c095780601f10610bde57610100808354040283529160200191610c09565b820191906000526020600020905b815481529060010190602001808311610bec57829003601f168201915b5050505050915050919050565b610c27610c2161163b565b836116fc565b610c66576040517f08c379a0000000000000000000000000000000000000000000000000000000008152600401610c5d90612906565b60405180910390fd5b610c7284848484611b96565b50505050565b60606000610cac610c8884611403565b604051602001610c989190612c85565b6040516020818303038152906040526119f7565b9050600c8054905081610cbf91906129ff565b9050600c8181548110610cd557610cd4612a30565b5b906000526020600020018054610cea9061273f565b80601f0160208091040260200160405190810160405280929190818152602001828054610d169061273f565b8015610d635780601f10610d3857610100808354040283529160200191610d63565b820191906000526020600020905b815481529060010190602001808311610d4657829003601f168201915b5050505050915050919050565b6060610d7b826115f0565b6000600660008481526020019081526020016000208054610d9b9061273f565b80601f0160208091040260200160405190810160405280929190818152602001828054610dc79061273f565b8015610e145780601f10610de957610100808354040283529160200191610e14565b820191906000526020600020905b815481529060010190602001808311610df757829003601f168201915b505050505090506000610e25611bf2565b90506000815103610e3a578192505050610e7d565b600082511115610e6f578082604051602001610e57929190612ca7565b60405160208183030381529060405292505050610e7d565b610e7884611c09565b925050505b919050565b6000610e8e60076111a9565b90506000610e9b826106fe565b90506000610ea883610b1e565b90506000610eb584610c78565b90506000838383604051602001610ece93929190612ccb565b60405160208183030381529060405290506000610eea86610816565b90506000600882600985604051602001610f079493929190612de0565b60405160208183030381529060405290506000610f4c84610f27846111b7565b604051602001610f38929190612f7f565b6040516020818303038152906040526111b7565b9050600081604051602001610f619190613010565b6040516020818303038152906040529050610fb06040518060400160405280601581526020017f0a2d2d2d2d2d2d2d2d2d2d2d2d2d2d2d2d2d2d2d2d0000000000000000000000815250611110565b610fb981611110565b610ff76040518060400160405280601581526020017f2d2d2d2d2d2d2d2d2d2d2d2d2d2d2d2d2d2d2d2d0a0000000000000000000000815250611110565b611001338a611c71565b61100b8982611c8f565b611015600761134e565b6110386040518060600160405280602581526020016138db602591398a33611364565b7febb98688741ffa4c7589bf325de30cf7becb63de567842e1ccdb6cb949fdc82c338a604051611069929190613032565b60405180910390a1505050505050505050565b6000600560008473ffffffffffffffffffffffffffffffffffffffff1673ffffffffffffffffffffffffffffffffffffffff16815260200190815260200160002060008373ffffffffffffffffffffffffffffffffffffffff1673ffffffffffffffffffffffffffffffffffffffff16815260200190815260200160002060009054906101000a900460ff16905092915050565b6111a68160405160240161112491906122b5565b6040516020818303038152906040527f41304fac000000000000000000000000000000000000000000000000000000007bffffffffffffffffffffffffffffffffffffffffffffffffffffffff19166020820180517bffffffffffffffffffffffffffffffffffffffffffffffffffffffff8381831617835250505050611cfc565b50565b600081600001549050919050565b6060600082519050600081036111df5760405180602001604052806000815250915050611349565b600060036002836111f0919061308a565b6111fa91906130be565b600461120691906130ef565b90506000602082611217919061308a565b67ffffffffffffffff8111156112305761122f612522565b5b6040519080825280601f01601f1916602001820160405280156112625781602001600182028036833780820191505090505b5090506000604051806060016040528060408152602001613900604091399050600181016020830160005b868110156113065760038101905062ffffff818a015116603f8160121c168401518060081b905060ff603f83600c1c1686015116810190508060081b905060ff603f8360061c1686015116810190508060081b905060ff603f831686015116810190508060e01b9050808452600484019350505061128d565b50600386066001811461132057600281146113305761133b565b613d3d60f01b600283035261133b565b603d60f81b60018303525b508484525050819450505050505b919050565b6001816000016000828254019250508190555050565b6113fe83838360405160240161137c93929190613131565b6040516020818303038152906040527f1c7ec448000000000000000000000000000000000000000000000000000000007bffffffffffffffffffffffffffffffffffffffffffffffffffffffff19166020820180517bffffffffffffffffffffffffffffffffffffffffffffffffffffffff8381831617835250505050611cfc565b505050565b60606000820361144a576040518060400160405280600181526020017f3000000000000000000000000000000000000000000000000000000000000000815250905061155e565b600082905060005b6000821461147c5780806114659061316f565b915050600a8261147591906130be565b9150611452565b60008167ffffffffffffffff81111561149857611497612522565b5b6040519080825280601f01601f1916602001820160405280156114ca5781602001600182028036833780820191505090505b5090505b60008514611557576001826114e391906131b7565b9150600a856114f291906129ff565b60306114fe919061308a565b60f81b81838151811061151457611513612a30565b5b60200101907effffffffffffffffffffffffffffffffffffffffffffffffffffffffffffff1916908160001a905350600a8561155091906130be565b94506114ce565b8093505050505b919050565b6000808273ffffffffffffffffffffffffffffffffffffffff163b119050919050565b60007f01ffc9a7000000000000000000000000000000000000000000000000000000007bffffffffffffffffffffffffffffffffffffffffffffffffffffffff1916827bffffffffffffffffffffffffffffffffffffffffffffffffffffffff1916149050919050565b6115f981611d25565b611638576040517f08c379a000000000000000000000000000000000000000000000000000000000815260040161162f90612b19565b60405180910390fd5b50565b600033905090565b816004600083815260200190815260200160002060006101000a81548173ffffffffffffffffffffffffffffffffffffffff021916908373ffffffffffffffffffffffffffffffffffffffff160217905550808273ffffffffffffffffffffffffffffffffffffffff166116b68361090e565b73ffffffffffffffffffffffffffffffffffffffff167f8c5be1e5ebec7d5bd14f71427d1e84f3dd0314c0f7b2291e5b200ac8c7c3b92560405160405180910390a45050565b6000806117088361090e565b90508073ffffffffffffffffffffffffffffffffffffffff168473ffffffffffffffffffffffffffffffffffffffff16148061174a5750611749818561107c565b5b8061178857508373ffffffffffffffffffffffffffffffffffffffff1661177084610541565b73ffffffffffffffffffffffffffffffffffffffff16145b91505092915050565b8273ffffffffffffffffffffffffffffffffffffffff166117b18261090e565b73ffffffffffffffffffffffffffffffffffffffff1614611807576040517f08c379a00000000000000000000000000000000000000000000000000000000081526004016117fe9061325d565b60405180910390fd5b600073ffffffffffffffffffffffffffffffffffffffff168273ffffffffffffffffffffffffffffffffffffffff1603611876576040517f08c379a000000000000000000000000000000000000000000000000000000000815260040161186d906132ef565b60405180910390fd5b611881838383611d91565b61188c600082611643565b6001600360008573ffffffffffffffffffffffffffffffffffffffff1673ffffffffffffffffffffffffffffffffffffffff16815260200190815260200160002060008282546118dc91906131b7565b925050819055506001600360008473ffffffffffffffffffffffffffffffffffffffff1673ffffffffffffffffffffffffffffffffffffffff1681526020019081526020016000206000828254611933919061308a565b92505081905550816002600083815260200190815260200160002060006101000a81548173ffffffffffffffffffffffffffffffffffffffff021916908373ffffffffffffffffffffffffffffffffffffffff160217905550808273ffffffffffffffffffffffffffffffffffffffff168473ffffffffffffffffffffffffffffffffffffffff167fddf252ad1be2c89b69c2b068fc378daa952ba7f163c4a11628f55a4df523b3ef60405160405180910390a46119f2838383611d96565b505050565b600081604051602001611a0a919061330f565b6040516020818303038152906040528051906020012060001c9050919050565b8173ffffffffffffffffffffffffffffffffffffffff168373ffffffffffffffffffffffffffffffffffffffff1603611a98576040517f08c379a0000000000000000000000000000000000000000000000000000000008152600401611a8f90613372565b60405180910390fd5b80600560008573ffffffffffffffffffffffffffffffffffffffff1673ffffffffffffffffffffffffffffffffffffffff16815260200190815260200160002060008473ffffffffffffffffffffffffffffffffffffffff1673ffffffffffffffffffffffffffffffffffffffff16815260200190815260200160002060006101000a81548160ff0219169083151502179055508173ffffffffffffffffffffffffffffffffffffffff168373ffffffffffffffffffffffffffffffffffffffff167f17307eab39ab6107e8899845ad3d59bd9653f200f220920489ca2b5937696c3183604051611b89919061220a565b60405180910390a3505050565b611ba1848484611791565b611bad84848484611d9b565b611bec576040517f08c379a0000000000000000000000000000000000000000000000000000000008152600401611be390613404565b60405180910390fd5b50505050565b606060405180602001604052806000815250905090565b6060611c14826115f0565b6000611c1e611bf2565b90506000815111611c3e5760405180602001604052806000815250611c69565b80611c4884611403565b604051602001611c59929190612ca7565b6040516020818303038152906040525b915050919050565b611c8b828260405180602001604052806000815250611f22565b5050565b611c9882611d25565b611cd7576040517f08c379a0000000000000000000000000000000000000000000000000000000008152600401611cce90613496565b60405180910390fd5b80600660008481526020019081526020016000209081611cf7919061364d565b505050565b60008151905060006a636f6e736f6c652e6c6f679050602083016000808483855afa5050505050565b60008073ffffffffffffffffffffffffffffffffffffffff166002600084815260200190815260200160002060009054906101000a900473ffffffffffffffffffffffffffffffffffffffff1673ffffffffffffffffffffffffffffffffffffffff1614159050919050565b505050565b505050565b6000611dbc8473ffffffffffffffffffffffffffffffffffffffff16611563565b15611f15578373ffffffffffffffffffffffffffffffffffffffff1663150b7a02611de561163b565b8786866040518563ffffffff1660e01b8152600401611e079493929190613774565b6020604051808303816000875af1925050508015611e4357506040513d601f19601f82011682018060405250810190611e4091906137d5565b60015b611ec5573d8060008114611e73576040519150601f19603f3d011682016040523d82523d6000602084013e611e78565b606091505b506000815103611ebd576040517f08c379a0000000000000000000000000000000000000000000000000000000008152600401611eb490613404565b60405180910390fd5b805181602001fd5b63150b7a0260e01b7bffffffffffffffffffffffffffffffffffffffffffffffffffffffff1916817bffffffffffffffffffffffffffffffffffffffffffffffffffffffff191614915050611f1a565b600190505b949350505050565b611f2c8383611f7d565b611f396000848484611d9b565b611f78576040517f08c379a0000000000000000000000000000000000000000000000000000000008152600401611f6f90613404565b60405180910390fd5b505050565b600073ffffffffffffffffffffffffffffffffffffffff168273ffffffffffffffffffffffffffffffffffffffff1603611fec576040517f08c379a0000000000000000000000000000000000000000000000000000000008152600401611fe39061384e565b60405180910390fd5b611ff581611d25565b15612035576040517f08c379a000000000000000000000000000000000000000000000000000000000815260040161202c906138ba565b60405180910390fd5b61204160008383611d91565b6001600360008473ffffffffffffffffffffffffffffffffffffffff1673ffffffffffffffffffffffffffffffffffffffff1681526020019081526020016000206000828254612091919061308a565b92505081905550816002600083815260200190815260200160002060006101000a81548173ffffffffffffffffffffffffffffffffffffffff021916908373ffffffffffffffffffffffffffffffffffffffff160217905550808273ffffffffffffffffffffffffffffffffffffffff16600073ffffffffffffffffffffffffffffffffffffffff167fddf252ad1be2c89b69c2b068fc378daa952ba7f163c4a11628f55a4df523b3ef60405160405180910390a461215260008383611d96565b5050565b6000604051905090565b600080fd5b600080fd5b60007fffffffff0000000000000000000000000000000000000000000000000000000082169050919050565b61219f8161216a565b81146121aa57600080fd5b50565b6000813590506121bc81612196565b92915050565b6000602082840312156121d8576121d7612160565b5b60006121e6848285016121ad565b91505092915050565b60008115159050919050565b612204816121ef565b82525050565b600060208201905061221f60008301846121fb565b92915050565b600081519050919050565b600082825260208201905092915050565b60005b8381101561225f578082015181840152602081019050612244565b60008484015250505050565b6000601f19601f8301169050919050565b600061228782612225565b6122918185612230565b93506122a1818560208601612241565b6122aa8161226b565b840191505092915050565b600060208201905081810360008301526122cf818461227c565b905092915050565b6000819050919050565b6122ea816122d7565b81146122f557600080fd5b50565b600081359050612307816122e1565b92915050565b60006020828403121561232357612322612160565b5b6000612331848285016122f8565b91505092915050565b600073ffffffffffffffffffffffffffffffffffffffff82169050919050565b60006123658261233a565b9050919050565b6123758161235a565b82525050565b6000602082019050612390600083018461236c565b92915050565b61239f8161235a565b81146123aa57600080fd5b50565b6000813590506123bc81612396565b92915050565b600080604083850312156123d9576123d8612160565b5b60006123e7858286016123ad565b92505060206123f8858286016122f8565b9150509250929050565b60008060006060848603121561241b5761241a612160565b5b6000612429868287016123ad565b935050602061243a868287016123ad565b925050604061244b868287016122f8565b9150509250925092565b60006020828403121561246b5761246a612160565b5b6000612479848285016123ad565b91505092915050565b61248b816122d7565b82525050565b60006020820190506124a66000830184612482565b92915050565b6124b5816121ef565b81146124c057600080fd5b50565b6000813590506124d2816124ac565b92915050565b600080604083850312156124ef576124ee612160565b5b60006124fd858286016123ad565b925050602061250e858286016124c3565b9150509250929050565b600080fd5b600080fd5b7f4e487b7100000000000000000000000000000000000000000000000000000000600052604160045260246000fd5b61255a8261226b565b810181811067ffffffffffffffff8211171561257957612578612522565b5b80604052505050565b600061258c612156565b90506125988282612551565b919050565b600067ffffffffffffffff8211156125b8576125b7612522565b5b6125c18261226b565b9050602081019050919050565b82818337600083830152505050565b60006125f06125eb8461259d565b612582565b90508281526020810184848401111561260c5761260b61251d565b5b6126178482856125ce565b509392505050565b600082601f83011261263457612633612518565b5b81356126448482602086016125dd565b91505092915050565b6000806000806080858703121561266757612666612160565b5b6000612675878288016123ad565b9450506020612686878288016123ad565b9350506040612697878288016122f8565b925050606085013567ffffffffffffffff8111156126b8576126b7612165565b5b6126c48782880161261f565b91505092959194509250565b600080604083850312156126e7576126e6612160565b5b60006126f5858286016123ad565b9250506020612706858286016123ad565b9150509250929050565b7f4e487b7100000000000000000000000000000000000000000000000000000000600052602260045260246000fd5b6000600282049050600182168061275757607f821691505b60208210810361276a57612769612710565b5b50919050565b7f4552433732313a20617070726f76616c20746f2063757272656e74206f776e6560008201527f7200000000000000000000000000000000000000000000000000000000000000602082015250565b60006127cc602183612230565b91506127d782612770565b604082019050919050565b600060208201905081810360008301526127fb816127bf565b9050919050565b7f4552433732313a20617070726f76652063616c6c6572206973206e6f7420746f60008201527f6b656e206f776e6572206e6f7220617070726f76656420666f7220616c6c0000602082015250565b600061285e603e83612230565b915061286982612802565b604082019050919050565b6000602082019050818103600083015261288d81612851565b9050919050565b7f4552433732313a2063616c6c6572206973206e6f7420746f6b656e206f776e6560008201527f72206e6f7220617070726f766564000000000000000000000000000000000000602082015250565b60006128f0602e83612230565b91506128fb82612894565b604082019050919050565b6000602082019050818103600083015261291f816128e3565b9050919050565b600081905092915050565b7f46495253545f574f524400000000000000000000000000000000000000000000600082015250565b6000612967600a83612926565b915061297282612931565b600a82019050919050565b600061298882612225565b6129928185612926565b93506129a2818560208601612241565b80840191505092915050565b60006129b98261295a565b91506129c5828461297d565b915081905092915050565b7f4e487b7100000000000000000000000000000000000000000000000000000000600052601260045260246000fd5b6000612a0a826122d7565b9150612a15836122d7565b925082612a2557612a246129d0565b5b828206905092915050565b7f4e487b7100000000000000000000000000000000000000000000000000000000600052603260045260246000fd5b7f434f4c4f52000000000000000000000000000000000000000000000000000000600082015250565b6000612a95600583612926565b9150612aa082612a5f565b600582019050919050565b6000612ab682612a88565b9150612ac2828461297d565b915081905092915050565b7f4552433732313a20696e76616c696420746f6b656e2049440000000000000000600082015250565b6000612b03601883612230565b9150612b0e82612acd565b602082019050919050565b60006020820190508181036000830152612b3281612af6565b9050919050565b7f4552433732313a2061646472657373207a65726f206973206e6f74206120766160008201527f6c6964206f776e65720000000000000000000000000000000000000000000000602082015250565b6000612b95602983612230565b9150612ba082612b39565b604082019050919050565b60006020820190508181036000830152612bc481612b88565b9050919050565b7f5345434f4e445f574f5244000000000000000000000000000000000000000000600082015250565b6000612c01600b83612926565b9150612c0c82612bcb565b600b82019050919050565b6000612c2282612bf4565b9150612c2e828461297d565b915081905092915050565b7f54484952445f574f524400000000000000000000000000000000000000000000600082015250565b6000612c6f600a83612926565b9150612c7a82612c39565b600a82019050919050565b6000612c9082612c62565b9150612c9c828461297d565b915081905092915050565b6000612cb3828561297d565b9150612cbf828461297d565b91508190509392505050565b6000612cd7828661297d565b9150612ce3828561297d565b9150612cef828461297d565b9150819050949350505050565b60008190508160005260206000209050919050565b60008154612d1e8161273f565b612d288186612926565b94506001821660008114612d435760018114612d5857612d8b565b60ff1983168652811515820286019350612d8b565b612d6185612cfc565b60005b83811015612d8357815481890152600182019150602081019050612d64565b838801955050505b50505092915050565b7f3c2f746578743e3c2f7376673e00000000000000000000000000000000000000600082015250565b6000612dca600d83612926565b9150612dd582612d94565b600d82019050919050565b6000612dec8287612d11565b9150612df8828661297d565b9150612e048285612d11565b9150612e10828461297d565b9150612e1b82612dbd565b915081905095945050505050565b7f7b226e616d65223a202200000000000000000000000000000000000000000000600082015250565b6000612e5f600a83612926565b9150612e6a82612e29565b600a82019050919050565b7f222c20226465736372697074696f6e223a20224120686967686c79206163636c60008201527f61696d656420636f6c6c656374696f6e206f6620737175617265732e222c202260208201527f696d616765223a2022646174613a696d6167652f7376672b786d6c3b6261736560408201527f36342c0000000000000000000000000000000000000000000000000000000000606082015250565b6000612f1d606383612926565b9150612f2882612e75565b606382019050919050565b7f227d000000000000000000000000000000000000000000000000000000000000600082015250565b6000612f69600283612926565b9150612f7482612f33565b600282019050919050565b6000612f8a82612e52565b9150612f96828561297d565b9150612fa182612f10565b9150612fad828461297d565b9150612fb882612f5c565b91508190509392505050565b7f646174613a6170706c69636174696f6e2f6a736f6e3b6261736536342c000000600082015250565b6000612ffa601d83612926565b915061300582612fc4565b601d82019050919050565b600061301b82612fed565b9150613027828461297d565b915081905092915050565b6000604082019050613047600083018561236c565b6130546020830184612482565b9392505050565b7f4e487b7100000000000000000000000000000000000000000000000000000000600052601160045260246000fd5b6000613095826122d7565b91506130a0836122d7565b92508282019050808211156130b8576130b761305b565b5b92915050565b60006130c9826122d7565b91506130d4836122d7565b9250826130e4576130e36129d0565b5b828204905092915050565b60006130fa826122d7565b9150613105836122d7565b9250828202613113816122d7565b9150828204841483151761312a5761312961305b565b5b5092915050565b6000606082019050818103600083015261314b818661227c565b905061315a6020830185612482565b613167604083018461236c565b949350505050565b600061317a826122d7565b91507fffffffffffffffffffffffffffffffffffffffffffffffffffffffffffffffff82036131ac576131ab61305b565b5b600182019050919050565b60006131c2826122d7565b91506131cd836122d7565b92508282039050818111156131e5576131e461305b565b5b92915050565b7f4552433732313a207472616e736665722066726f6d20696e636f72726563742060008201527f6f776e6572000000000000000000000000000000000000000000000000000000602082015250565b6000613247602583612230565b9150613252826131eb565b604082019050919050565b600060208201905081810360008301526132768161323a565b9050919050565b7f4552433732313a207472616e7366657220746f20746865207a65726f2061646460008201527f7265737300000000000000000000000000000000000000000000000000000000602082015250565b60006132d9602483612230565b91506132e48261327d565b604082019050919050565b60006020820190508181036000830152613308816132cc565b9050919050565b600061331b828461297d565b915081905092915050565b7f4552433732313a20617070726f766520746f2063616c6c657200000000000000600082015250565b600061335c601983612230565b915061336782613326565b602082019050919050565b6000602082019050818103600083015261338b8161334f565b9050919050565b7f4552433732313a207472616e7366657220746f206e6f6e20455243373231526560008201527f63656976657220696d706c656d656e7465720000000000000000000000000000602082015250565b60006133ee603283612230565b91506133f982613392565b604082019050919050565b6000602082019050818103600083015261341d816133e1565b9050919050565b7f45524337323155524953746f726167653a2055524920736574206f66206e6f6e60008201527f6578697374656e7420746f6b656e000000000000000000000000000000000000602082015250565b6000613480602e83612230565b915061348b82613424565b604082019050919050565b600060208201905081810360008301526134af81613473565b9050919050565b60006020601f8301049050919050565b600082821b905092915050565b6000600883026135037fffffffffffffffffffffffffffffffffffffffffffffffffffffffffffffffff826134c6565b61350d86836134c6565b95508019841693508086168417925050509392505050565b6000819050919050565b600061354a613545613540846122d7565b613525565b6122d7565b9050919050565b6000819050919050565b6135648361352f565b61357861357082613551565b8484546134d3565b825550505050565b600090565b61358d613580565b61359881848461355b565b505050565b5b818110156135bc576135b1600082613585565b60018101905061359e565b5050565b601f821115613601576135d281612cfc565b6135db846134b6565b810160208510156135ea578190505b6135fe6135f6856134b6565b83018261359d565b50505b505050565b600082821c905092915050565b600061362460001984600802613606565b1980831691505092915050565b600061363d8383613613565b9150826002028217905092915050565b61365682612225565b67ffffffffffffffff81111561366f5761366e612522565b5b613679825461273f565b6136848282856135c0565b600060209050601f8311600181146136b757600084156136a5578287015190505b6136af8582613631565b865550613717565b601f1984166136c586612cfc565b60005b828110156136ed578489015182556001820191506020850194506020810190506136c8565b8683101561370a5784890151613706601f891682613613565b8355505b6001600288020188555050505b505050505050565b600081519050919050565b600082825260208201905092915050565b60006137468261371f565b613750818561372a565b9350613760818560208601612241565b6137698161226b565b840191505092915050565b6000608082019050613789600083018761236c565b613796602083018661236c565b6137a36040830185612482565b81810360608301526137b5818461373b565b905095945050505050565b6000815190506137cf81612196565b92915050565b6000602082840312156137eb576137ea612160565b5b60006137f9848285016137c0565b91505092915050565b7f4552433732313a206d696e7420746f20746865207a65726f2061646472657373600082015250565b6000613838602083612230565b915061384382613802565b602082019050919050565b600060208201905081810360008301526138678161382b565b9050919050565b7f4552433732313a20746f6b656e20616c7265616479206d696e74656400000000600082015250565b60006138a4601c83612230565b91506138af8261386e565b602082019050919050565b600060208201905081810360008301526138d381613897565b905091905056fe416e204e465420772f20494420257320686173206265656e206d696e74656420746f2025734142434445464748494a4b4c4d4e4f505152535455565758595a6162636465666768696a6b6c6d6e6f707172737475767778797a303132333435363738392b2fa2646970667358221220d4bc0fcbcfbcb45659348789ca820e70b43735037745588c834d069eb3fd311564736f6c63430008110033416e204e465420772f20494420257320686173206265656e206d696e74656420746f2025733c73766720786d6c6e733d27687474703a2f2f7777772e77332e6f72672f323030302f73766727207072657365727665417370656374526174696f3d27784d696e594d696e206d656574272076696577426f783d273020302033353020333530273e3c7374796c653e2e62617365207b2066696c6c3a2077686974653b20666f6e742d66616d696c793a2073657269663b20666f6e742d73697a653a20323470783b207d3c2f7374796c653e3c726563742077696474683d273130302527206865696768743d2731303025272066696c6c3d274142434445464748494a4b4c4d4e4f505152535455565758595a6162636465666768696a6b6c6d6e6f707172737475767778797a303132333435363738392b2f272f3e3c7465787420783d273530252720793d273530252720636c6173733d27626173652720646f6d696e616e742d626173656c696e653d276d6964646c652720746578742d616e63686f723d276d6964646c65273e",
  "linkReferences": {},
  "deployedLinkReferences": {}
}